:020000041400E6
:10000000F0790020D900001400F002F800F08AF81E
:100010000AA090E8000C82448344AAF10107DA4563
:1000200001D100F07FF8AFF2090EBAE80F0013F02B
:10003000010F18BFFB1A43F001031847F40000003A
:10004000240100000A444FF0000C10F8013B13F0AB
:10005000070408BF10F8014B1D1108BF10F8015B21
:10006000641E05D010F8016B641E01F8016BF9D114
:1000700013F0080F1EBF10F8014BAD1C0C1B09D16B
:100080006D1E58BF01F801CBFAD505E014F8016BDD
:1000900001F8016B6D1EF9D59142D6D3704700006F
:1000A000103A24BF78C878C1FAD8520724BF30C8A4
:1000B00030C144BF04680C60704700000023002476
:1000C00000250026103A28BF78C1FBD8520728BF68
:1000D00030C148BF0B607047DFF82C00016841F465
:1000E0007001016009480047FEE7FEE7FEE7FEE712
:1000F000FEE7FEE7FEE7FEE7FEE7FEE70448054908
:10010000054A064B7047000088ED00E00900001426
:10011000F00B0020F0790020F0730020F073002035
:100120007046704740F2D91CC1F2000C60470000D5
:100130006001001400000010B8470100A000001486
:100140001849011400000020A80100004400001418
:1001500060490114A801002048780000BC00001488
:10016000F0790020D9000014E9000014EB0000141D
:10017000ED000014EF000014F10000145A5A5A5A0E
:10018000000000000000000000000000F300001468
:10019000F500001400000000F7000014F90000143E
:1001A000FB000014B9930010FB000014FB000014C6
:1001B000FB000014FB000014FB000014FB00001403
:1001C000C99F0010FB000014FB000014FB0000148A
:1001D000FB000014FB000014FB000014FB000014E3
:1001E000FB000014FB0000149F450010FB000014EE
:1001F000FB000014FB000014FB0000142D4B00104A
:100200008F4F0010FB000014FB000014FB000014D3
:10021000FB000014FB000014FB000014FB000014A2
:10022000FB000014FB000014FB000014FB00001492
:10023000FB000014FB000014FB000014FB00001482
:10024000FB000014FB000014FB000014FB00001472
:1002500000000000FB000014FB000014FB00001471
:1002600000000000FB000014FB000014FB00001461
:10027000FB0000146E2907F07484702907F0BC8518
:10028000662910F02283652910F01F83672910F07A
:100290001C836129AFF3008003681B0A28BF41F06B
:1002A0008001692907F0AC80642907F0A9807529CD
:1002B00007F0A6806F2907F04785782907F0888521
:1002C000E92907F0DF84E42907F0DC84F52907F049
:1002D000D984EF2907F04485F82907F0878503685A
:1002E000DB0928BF41F08001632908F047807329AA
:1002F00008F04C80E32908F05780F32908F05C806F
:10030000002070471FB510F0B0FA9DE8030007F019
:1003100029FB08F0B9F80400002000210FF008FFC5
:10032000401C6060002000210FF0ECFEE06007F050
:10033000D5FA1FBD10B510BD08F078F81146FFF7CB
:10034000E1FF00F01BF808F053F903B4FFF7F2FFE8
:1003500003BC07F07DFD000030B58DB004460D46AE
:100360002B46224616A101A807F034F801AA4FF443
:100370007F01E0B20FF026FD0DB030BD10B541F2A7
:100380003062154915480CF025FC1548006800F04E
:100390000BF904F01DFB1248006800F06AFC002114
:1003A000104800F092FC00210F4800F08EFC012163
:1003B0000E4800F08AFC00F08FFD002010BD000008
:1003C0007265636569766564207369676E616C3A0E
:1003D0002025642025640A006E070110008000209B
:1003E000F0000020240000204C00002034000020F9
:1003F0000146FF4A086810604FF00000704730B5B2
:100400008BB04FF00000FB490860FB4909680968A0
:1004100008464FF0000102F08BFD4FF0010004464A
:100420001BE02246F5A102A806F0D4FF002301AA92
:100430000AA902A80CF07CFA0546002D02DA28462B
:100440000BB030BDEC49096809680846E2B2019971
:1004500003F0CDFA04F101000446072CE1DDEA487F
:10046000006803F076FB0020EAE710B5A2B01AA8F6
:100470000CF03AFD4FF00100044618E02246DFA1DF
:1004800012A806F0A7FF2246E0A10AA806F0A2FFE4
:1004900000201AA920228123CDE9002102900AAA76
:1004A000012112A80CF0B0F904F101000446072C58
:1004B000E4DD00204FF47A710223D9A2CDE90010C7
:1004C0000146E7A00CF0A0F900204FF47A71022356
:1004D000E64ACDE900100146E5A00CF095F90020B0
:1004E00014210423E14A5832CDE900100146E7A067
:1004F0000CF08AF9002001460290E8481423DB4AF8
:10050000C432CDE900100021E5A00CF07DF90020F7
:1005100001460290E6481423E64ACDE90010002186
:10052000E5A00CF071F9002001460290E048142388
:10053000E04A6832CDE900100021E2A00CF064F935
:10054000002209A9D6A00CF0F3F9002208A9DAA02C
:100550000CF0EEF9002207A9DAA00CF0E9F9A6499F
:10056000096809680846DDE90732099902F011FDBA
:10057000002206A9BAA00CF0DBF9002205A9BCA054
:100580000CF0D6F9002204A9C0A00CF0D1F9BDF8F6
:100590001420BDF818109848049B006802F0A7F9D1
:1005A000FFF72DFF22B010BD70B506464FF00400D6
:1005B0000EF06CFB044603F055FA044692480460C2
:1005C0004FF0E4000EF062FB05468F4801682846B4
:1005D00001F078FD054688480560BF4930460DF0BA
:1005E0004CFB0022BDA1C04800680DF031FDBF49A1
:1005F00008800846B0F90000002802DA4FF0FF300A
:1006000070BDFFF732FF0020FAE72DE9F04794B004
:1006100004460E4617469846DDF8709002A80CF086
:1006200063FC2078012802DB2078072804DD4FF0E6
:10063000FF3014B0BDE8F0876E48006828B9ACA060
:100640000CF01AF86FF00100F3E712A831883A882D
:10065000B8F80030B9F800C0018042808380A0F86B
:1006600006C000BF824602A800902078014653468B
:10067000604A6148006802F046F90546002D04DA38
:10068000A2A00BF0F9FF2846D3E7207802465BA131
:100690000AA806F09FFE002002AB202281210090D4
:1006A0000AA80CF065F9A3A00BF0E6FF2846C0E706
:1006B000F0B58BB007460C4615461E464FF00001BC
:1006C00005EB850020F00040CDE908410A91079034
:1006D0004FF082004FF0C8014FF042024FF4A07378
:1006E000CDE90332CDE905104FF04101944BCDE93E
:1006F000016200914FF064024FF0000138460DF0A6
:10070000D2FD00200BB0F0BD2DE9F04F97B00446AC
:100710000F4690461D4614A84FF00001C18081800D
:100720004180018000BF04A80CF0DEFB2078012886
:1007300002DB2078072804DD4FF0FF3017B0BDE85A
:10074000F08F2C48006828B969A00BF095FF6FF076
:100750000100F3E716A83988B8F80020018042802C
:1007600000BF814614A804A9CDE9001020780146F5
:100770004B46204A2048006802F004F90646002E45
:1007800004DA62A00BF078FF3046D7E715B301A872
:100790002178BDF85020BDF854B002EB0B0A1FFAC7
:1007A0008AF3BDF852C0BDF856B00CEB0B0A1FFA25
:1007B0008AF9018042808380A0F806C0A0F80890E2
:1007C00000BF4FF003034FF0010201A92846FFF7D5
:1007D0006FFF00BF2078024608A10CA806F0FAFDC2
:1007E000002004AB2022812100900CA8AAE0000088
:1007F000000000200C0100200C0000207369676ECF
:10080000617475726525640008000020436F6C6F89
:1008100072207369676E61747572652025640000CB
:100820005365747320746865206D6178696D756DAA
:1008300020746F74616C20626C6F636B73207365DE
:100840006E7420706572206672616D652E2028645A
:10085000656661756C74203130303029000000000D
:100860004D617820626C6F636B730000681E01102D
:100870004D617820626C6F636B73207065722073BA
:1008800069676E6174757265000000004D696E20C5
:10089000626C6F636B206172656100000000244030
:1008A0004D696E2073617475726174696F6E0000BA
:1008B0000000F03FA41F0110487565207370726539
:1008C0006164000053617475726174696F6E2073A6
:1008D0007072656164000000A01D011067657452AC
:1008E0004C534672616D6500F40000200400002046
:1008F0004E6F20726177206672616D6520696E208F
:100900006D656D6F7279210A00000000436F6C6F96
:10091000722073617475726174696F6E2069736E91
:100920002774206869676820656E6F756768210A9B
:100930000000000053756363657373210A000000B3
:10094000434342310CF014F8AFF218000BF094FE60
:100950003046F3E630B591B0044601A80CF0C4FA75
:100960002078012802DB2078072803DD4FF0FF30D4
:1009700011B030BD202101A806F044FF20780246C6
:10098000AFF2881109A806F025FD002001AB202256
:100990008121009009A80BF0EBFF0546FFF72FFD22
:1009A0002846E5E730B591B001A80CF09DFA20216A
:1009B00001A806F027FF4FF00100044617E0224689
:1009C000AFF2C81109A806F005FD002001AB2022F6
:1009D0008121009009A80BF0CBFF0546002D02DA1B
:1009E000284611B030BD04F10100C0B20446072C06
:1009F000E5DDFFF704FD0020F3E7F0B589B004461C
:100A00000D4616464FF0FF3007904FF0010008905A
:100A100008A80BF0AFF8071E02DA384609B0F0BD9F
:100A2000A6B1002007AACDE9030205900690042094
:100A30000346CDE9010500947E48B0F9002000216D
:100A40007D4800680DF047FA0798E7E70020042288
:100A5000CDE902501346CDE9004204907548B0F943
:100A600000200121744800680DF035FA0020D5E718
:100A70002DE9F0418AB007460E467048006808B17B
:100A8000FFF7BDFC6E48006803F063F80020B42255
:100A9000CDE904020690079002200021CDE9001064
:100AA00064230203CDE90210664938460DF0CBFEFF
:100AB0000446654A1146634A224410464FF001023B
:100AC000FFF79BFF8046C4F500504FEA90000246B6
:100AD0005C48204401465A48006802F0F7FF05468A
:100AE0004FF000004FF0B4014FF0C802CDE90715F8
:100AF000069209904FF002004FF4A071CDE9026018
:100B0000CDE904104FF0410050494FF064034FF419
:100B10000052CDE900104B4938460DF094FE04EB2D
:100B200085000246474938460DF0A1FE40460AB00E
:100B3000BDE8F08110B504464FF001012046FFF7F3
:100B400097FF10BD30B504460B46206805464FF0B0
:100B50000000014604E0505C685401F101000146C8
:100B600018688842F7D8186830BD2DE9F047054667
:100B70000E4615B90020BDE8F08705FB06F042F2ED
:100B80001071B0FBF1F40CB90520F4E720460FF02A
:100B9000FEFD814648460FF04FF880462C490FF085
:100BA00015FE07460FF0E5FD0446FF2C02D94FF075
:100BB000FF000446E0B2DEE77FB50021254800686B
:100BC00001F068FE044664B3A0886188A0EB0100D0
:100BD0002189E288A1EB020100FB01F620881E4971
:100BE00051F820000546E9B208463146FFF7BDFF3F
:100BF00001904FEA15200546E9B208463146FFF755
:100C0000B4FF02904FEA15200546E9B20846314686
:100C1000FFF7ABFF039001AA02A903A80AF042FE66
:100C200006E04FF00000009068460BF041FD00BF69
:100C30007FBD000004000020F40000200C01002013
:100C40000800002000000810002008104343513124
:100C5000000048420C000020481E01101CB5002076
:100C600000900123E04A01460190E0A00BF0CCFD8A
:100C70001CBD70B505464FF00C000EF007F8044699
:100C800000F0ECFC0446DD480460DD4928460CF029
:100C9000F4FF0022DBA1DC4800680DF0D9F9DB4944
:100CA00008800022DAA1D84800680DF0D1F9DA49AD
:100CB00008800022D9A1D44800680DF0C9F9D949AB
:100CC0000880FFF7CBFF002070BD02460B4613B132
:100CD000D548C26112E04FF0000107E0082902DBAD
:100CE0004FF0FF30704701F101000146CE4850F847
:100CF00021000028F2D1CC4840F821200020F1E763
:100D0000CA48007810B1C94800787047C8480078D0
:100D100008B10220F9E70020F7E74FF00000C549CD
:100D2000087070474FF00100C2490870BF49087051
:100D30004FF00000704710B50446207858B1207875
:100D4000082805DC2078401EB74951F8200010B96A
:100D50004FF0FF3010BD4FF00000B7490860207819
:100D600028B90022B549A1A00BF0E2FD04E02078EB
:100D7000A0F10100B1490870FFF7D4FFEAE770B5B0
:100D800006460C463046FFF7D6FF0546002D01DA31
:100D9000284670BDA849206808600020F9E710B512
:100DA0004FF00000044610E09F4850F824004068CF
:100DB00003469D4850F8240000680246611CA0A02C
:100DC0000BF05AFC04F101000446974850F8240047
:100DD0000028E9D110BD10B586B004468249A1F1C2
:100DE000080103C9CDE90401BDF814000346BDF8AC
:100DF00012000246BDF81000014694A00BF03CFC26
:100E000054B1002004AACDE9002006238222014625
:100E1000029020460DF047FA002006B010BD10B534
:100E200086B004464FF0000005AACDE90102039008
:100E30004FF00103009404907448B0F900204FF083
:100E40000001714800680DF046F8059806B010BD25
:100E50001FB5002003AACDE9002003460290714887
:100E6000B0F900200021684800680DF034F80398BC
:100E700004B010BD10B5FFF7F8FA03F067FD0BF0F2
:100E800041F9FFF7EBFE10BD10B50BF077FE5B48A4
:100E9000006800F096FC664908700BF0F1FF08B19D
:100EA000FFF7E8FF10BD38B54FF00000044603E03F
:100EB00004F10100C0B204465B4850F82400002849
:100EC000F6D121464D48006800F086FDC0B2009082
:100ED0006846FFF730FF38BD08B54FF00000054603
:100EE0000646FFF7E0FF7DE0624800680DF026FC53
:100EF0000446FFF7C9FF052D6ED2DFE805F0031B9E
:100F0000424955004FF00000009068460BF0D0FBBE
:100F100045494A4A127851F82210896808468047A4
:100F2000002803DA4FF00300054602E04FF001000D
:100F3000054655E03E48007828B1FFF789FF4FF09D
:100F4000020005461CE03B48007848B136493B4A60
:100F5000127851F82210C96808468047002803DA41
:100F60004FF0030005460BE056B14CB94FF00000BE
:100F700000906846FFF7DFFE4FF00000054600BF17
:100F80002EE02B48007810B94FF00000054627E00E
:100F90004FF000002749087024490870FFF758FFF8
:100FA0004FF0040005461BE02248007828B1FFF707
:100FB000B9FE4FF0000005460DE014B12E48007850
:100FC00048B94FF0000000906846FFF7B4FE4FF0BC
:100FD0000000054600BF03E04FF00300054600BFD8
:100FE00000BF264680E70000442101104465666189
:100FF000756C742070726F6772616D002000002044
:101000007C20011072756E00F40000201800002092
:1010100072756E6E696E67001A00002073746F70CF
:10102000000000001C000020A8010020100000208B
:1010300013000020110000201400002012000020E6
:1010400025643A2025732C2025730A00506978798D
:10105000206669726D776172652076657273696F5B
:101060006E2025642E25642E256420424554410AB5
:1010700000000000F0000020CF00002008B54FF075
:101080000100009068460AF075FD1648006808B136
:10109000FFF7B5F91448006802F05BFD0020FFF788
:1010A000BEFE002008BD1CB51048006801F087FA9C
:1010B0006A4601A90D48006801F012FC01230C48A2
:1010C000DDE900210068FFF7F3FA03F097FC04461E
:1010D0000068C068014620468847FFF76DFD002084
:1010E0001CBD00000C010020080000200C000020A6
:1010F000F000002030B58BB005464FF001000446EB
:1011000015E0224651A102A806F064F9002301AAC5
:101110000AA902A80BF00CFC20222846019906F02F
:10112000FAFA04F10100044605F120000546072CF7
:10113000E7DD0BB030BD4FF00100474908704FF0BC
:1011400000007047F0B5C5B006464448074642481F
:10115000007810B10DA8FFF7CDFF00204FF47A41C1
:10116000B122C823CDE90932CDE90B1002204FF49A
:10117000A0710DABCDE90530CDE9071036480078F8
:1011800008B1382000E0002094214122CDE9012659
:10119000CDE90310324864234FF490323946009071
:1011A000304800680DF04FFB04464FF0C8004FF484
:1011B000A0714FF00002CDE900210290C4F59032F9
:1011C000114607EB040210464FF000034FF02102D6
:1011D0000AF0DAFD04F57A423946224800680DF03B
:1011E00046FB05464FF000001B4908702DB91E480C
:1011F000006810B14FF0010008701B48056045B051
:10120000F0BD00B587B019480068C0B94FF02100A3
:1012100006904FF00000059004904FF4A0700390EA
:101220004FF0C80002900F48006802A9CDE90010F5
:1012300003AB04AA05A906A80BF030F802E00120D0
:10124000FFF780FF002007B000BD00007369676EE4
:101250006174757265256400480000200000081064
:10126000434D5631F00000204400002014000020BF
:1012700038B504464FF4FA702060206880B20090C0
:10128000694604F108000AF019FC38BD1FB54FF09B
:101290000100039003A80AF06DFC4FF000000390DA
:1012A0006FF0C70002904FF0C800019001AA02A998
:1012B00003A80AF0DDFE4FF0010003906FF0C700B5
:1012C00001904FF0C800029002AA01A903A80AF0F9
:1012D000CFFE4FF06400009068460AF037FD534897
:1012E000FFF7C6FF5248FFF7C3FF5248006808B136
:1012F000FFF785F85048006802F02BFC0020FFF74C
:101300008EFD002004B010BDF8B504460D4660689F
:10131000B0F1004F25D06068A5EB0000216900FB0B
:1013200001F0E16805FB01004FF47A7190FBF1F6E2
:101330002068304420602068B0F57A7F02DD0846DE
:10134000206005E02068002802DA4FF000002060ED
:10135000206880B20090694604F108000AF0AEFBF4
:1013600000BF6560F8BD2DE9F0413448006801F028
:1013700026F900213148006801F08CFA04463CB39C
:10138000A1886288A1EB0201084601EBD07102EB53
:1013900061018DB22189E288A1EB0201084601EBCF
:1013A000D07102EB61018EB2C5F1A007A6F164080D
:1013B00039461E48FFF7A8FF41461D48FFF7A4FF26
:1013C00033462A461E4801681EA00BF055F904E07A
:1013D0001B4801681FA00BF04FF9FFF7EDFB184801
:1013E000006800F10100164908604FF00000BDE8F8
:1013F000F08110B54FF4FA7404600172C2600361A9
:101400004FF00044446010BD00B54FF448734FF4F2
:10141000FA7200210548FFF7ECFF4FF461734FF4B7
:101420002F7201210248FFF7E4FF00BDC801002030
:10143000DC0100200C010020080000200C0000202E
:101440005C00002025643A20783D256420793D2504
:10145000640A000025640A00F0B505AC70CC12F0F7
:10146000010F17D011F0010F0AD01F78276013F871
:10147000017C2F60A3EB000717F8017C376020E0A8
:1014800013F8017C27601F782F60A3EB00073F78DB
:10149000376016E011F0010F09D0A3EB00073F7889
:1014A00027601F782F6013F8017C376009E0A3EBF9
:1014B000000717F8017C276013F8017C2F601F7864
:1014C0003760F0BD2DE9F04F88B007468846914659
:1014D000FF48006803904FF0000082468346049066
:1014E00006464FF0610005462BE04FF09D00044694
:1014F00022E005A806A907AACDE9002102904FF431
:10150000A071039801FB0500204403462A462146AA
:101510004FF4A070FFF7A0FF07985044824606984A
:1015200058448346DDE904010844049004F10100B5
:10153000044606F101000646A32CDAD305F10100AA
:101540000546672DD1D3BAFBF6F03870BBFBF6F039
:1015500088F800000498B0FBF6F089F8000008B0A5
:10156000BDE8F08F2DE9F04F87B004460D461646D2
:1015700020783178884202DA94F8008001E096F809
:1015800000802878404501DA2878804608EB480139
:1015900008464FEAE17100EB9171C1F387092078A9
:1015A000A0EB090020702878A0EB090028703078A3
:1015B000A0EB0900307020783178884201DD27786F
:1015C00000E037782878B84201DD287807463846A9
:1015D0000EF054FF02460B46CDE900010020BD4944
:1015E0000EF0F4FDCDE902010EF0BEFD8246217839
:1015F00008460FF0CCF8514603900FF0E7F8834609
:10160000297808460FF0C3F8514603900FF0DEF832
:101610000590317808460FF0BAF8514603900FF064
:10162000D5F8049058460FF0A4F8207005980FF0F4
:10163000A0F8287004980FF09CF8307007B0BDE84F
:10164000F08F38B504464FF00000207200906846D5
:101650000BF02EF84FF00000207038BD10B5044696
:101660002046FFF7EEFF204610BD704738B505460F
:101670000C4668460EF0A0FB00BF00980EF0D2FAB0
:10168000A042FAD30BF07AFA38BDF8B504460D46FD
:101690004FF00000064619E04FF000000090684649
:1016A0000BF006F84EF660212046FFF7DFFF617869
:1016B000894A02EB810108460AF0FAFF4EF66021E2
:1016C0002046FFF7D3FF06F101000646AE42E3DBFA
:1016D000F8BD2DE9FF4105464FF0A00003904FF003
:1016E000640002907D48036802AA03A905F1010085
:1016F000FFF70AF80446002C1BDD214678A00AF00B
:10170000BBFF0AF00DFE009020460FF039F80746A7
:1017100077490FF05BF806460FF02BF8019001A80F
:101720000AF00EFE04212846FFF7AFFF68460AF0D4
:1017300007FEBDE8FF8138B504466078072800DD64
:1017400038BD4FF00000009068460AF0B1FF4EF639
:1017500060212046FFF78AFF61785F4A02EB810132
:1017600008460AF0A5FF00BFEAE770B586B0044658
:10177000684661784FF09D024FF0A3054FF061037A
:101780004FF06706018042808580C380068100BFDC
:101790004FF001031A46694650480068FEF788FF7B
:1017A00003AA04A905A8FFF78DFE03AA04A905A8AA
:1017B000FFF7D8FE03AA04A905A80AF073F806B03B
:1017C00070BD30B589B004460EF0AAF80546207AFF
:1017D000F0B14FF0210008904FF000000790069004
:1017E0004FF4A07005904FF0C80004904FF0000037
:1017F0003A49096804AACDE90021029005AB06AA7E
:1018000007A908A80AF03CFE2046FFF7AEFF1DE03E
:101810002078D8B14FF0210008904FF000000790D9
:1018200006904FF4A07005904FF0C80004904FF060
:1018300001002A49096804AACDE90021029005ABFC
:1018400006AA07A908A80AF01BFE00BF20780628F0
:1018500071D2DFE800F003122C7184B065B1201D55
:101860000EF0AAFA4FF0010020704FF0000008902F
:1018700008A80AF01DFF00BFA6E01DB94FF0000048
:10188000207013E0616808460EF0CCF919498842CF
:101890000CD94FF00000607004F104000EF08CFAD7
:1018A0002046FFF748FF4FF0020020708CE055BB48
:1018B00003212046FFF7E9FE201D0EF07DFA607837
:1018C000D0B94FF00100089008A809F023FF16E0F6
:1018D0000C01002000E06F40481E0110F0000020C5
:1018E000676F6F646E6573733D25640A00000000C6
:1018F00000004843D01213004FF0010020724FF057
:101900000300207016E0616808460EF08BF9674905
:1019100088420FD9201D0EF04FFA607800F10100C7
:1019200060706078082802D14FF000006070204697
:10193000FFF701FF48E043E035B1201D0EF03CFA0F
:101940004FF00400207009E0616808460EF06AF963
:101950005749884202D92046FFF773FE34E09DB90B
:10196000607850B94FF00000089008A809F0D2FE46
:1019700004212046FFF789FE02E02046FFF7A9FE7A
:101980002046FFF75EFE15E0616808460EF04AF952
:10199000484988420ED9607830B94FF0000008906D
:1019A00008A809F0B7FE00BF2046FFF74AFE4FF037
:1019B0000500207008E015B92046FFF742FE03E05D
:1019C0002046FFF73EFE00BF00BF207810B1012087
:1019D00009B030BD0020FBE72DE9F04104460D467B
:1019E000012D02DC0020BDE8F0815EE00DF098FFE3
:1019F00006460BF0C3F8207820B101280CD002284D
:101A00004ED128E0201D0EF0D7F94FF001002070D4
:101A10002046FFF790FE47E066B1201D0EF0CCF99E
:101A20004FF0010060702046FFF785FE4FF0020086
:101A300020700FE0616808460EF0F4F81E498842F5
:101A400008D904212046FFF720FE2046FFF7F9FDC4
:101A50000020C8E728E04EB9677804212046FFF748
:101A600014FE2046FFF7EDFD3846BCE761680846E6
:101A70000EF0D8F80D49884211D9201D0EF09CF9BE
:101A8000607800F101006070617805F10100814229
:101A900002D14FF0010060702046FFF74CFE03E0DA
:101AA0002046FFF7CEFD00BF00BF9FE740420F007A
:101AB00000879303D012130060E3160070B504464C
:101AC00000BF4FF00000206200BF4FF0FF30A08247
:101AD00047F6FF706082208240F2FF10A18860F319
:101AE000CB01A180618960F3CB01618105E0A5692B
:101AF000A868A06128460DF0BCF8A0690028F6D1BE
:101B000004F11800E06170BD10B504464FF000000C
:101B1000A06104F11800E0612046FFF7CFFF2046E6
:101B200010BD10B504462046FFF7C8FF204610BD83
:101B30004189C1F3C801A1F58072FF3A0AD0D0F8FB
:101B40000A104160C189018140F2FF11428961F3AD
:101B5000CB024281704710B5B0F910408C4201DDD4
:101B60000CB20482B0F91240944201DD14B24482F6
:101B7000B0F914409C4201DA1CB2848210BDF8B561
:101B800004460D46A888C0F3090003462888C0F320
:101B9000C80002466888C0F3090001462046FFF7E6
:101BA000DAFF6089C0F3C800A0F58071FF3905D164
:101BB0002868C4F80A00A888E08103E0A888C0F378
:101BC0000900E08100BF6A88C2F30902A2F10102A4
:101BD0001046AA88C2F309021146A1EB0002009246
:101BE00000BF694604F120000DF02AF8F94800789A
:101BF000F0B139460C200DF05DF806000AD03046F1
:101C000029680160A98881804FF00001816000BFD0
:101C1000064601E04FF00000E1690860E0690068F5
:101C200000B9F8BDE069006800F10800E06100BF9C
:101C300000BFF6E770B505460C4604F1200105F13A
:101C400020000CF0FDFFB4F914000346B4F91200B3
:101C50000246B4F9100001462846FFF77CFF2089B0
:101C6000C0F309012889C0F30900814203DD2089FE
:101C7000C0F309002881D748007850B1A069E9690C
:101C80000860E069E8614FF00000A06104F118000D
:101C9000E06170BD4FF0000101618160416000F1C1
:101CA0000401C1604FF0FF3101804FF001018182DA
:101CB0004FF000018161704770B50446606800B95B
:101CC00005E040F2C312C4A1C9A005F0A3FC4FF087
:101CD0000000A0604FF0FF3020804FF00000A061B6
:101CE0000DE0206900680546206930B12169084689
:101CF000FFF717FF06460CF0BCFF256100BF206907
:101D00000028EED170BD10B503460DE059680846B5
:101D1000FFF70EFF586800680446596818690860A4
:101D2000586818615C6000BF58680028EED110BD8B
:101D300010B504462046FFF7E6FF2046FFF7BCFF3C
:101D4000204610BD30B503460D4616E0286804460F
:101D50002046FFF7EDFEB3F90000A188C1F3C801EA
:101D6000401AB3F91410884205DD2068286018690C
:101D700020601C6100E030BD00BF28680028E5D16C
:101D800000BFF8E710B50446A068E060E0680068AE
:101D9000A060A06820B1A06801462046FFF7D2FFEE
:101DA00010BD10B5044604F104012046FFF7CAFF38
:101DB00004F10400E060E0680068A060A06820B161
:101DC000A06801462046FFF7BDFF10BD2DE9F04792
:101DD00004460D462888C0F3C800B4F900108842B4
:101DE00006D02888C0F3C80020802046FFF7D9FF1E
:101DF00044E06888C0F30901A0680089C0F30900C5
:101E0000814203DD2046FFF7BDFF37E0A888C0F31D
:101E10000901A068C088C0F30900814200DA30E0FF
:101E2000A16808462946FFF7AAFE17E0A0680068E7
:101E300007463868A1680860A16808463946FFF778
:101E4000F9FE2FB13846FFF76CFE82460CF011FF09
:101E5000A06801462046FFF775FF00BFA068006834
:101E600048B1A888C0F30901A0680068C088C0F321
:101E700009008142DADA0020BDE8F087A068002876
:101E8000B7D100BF494624200CF014FF5FEA0008D8
:101E900004D04046FFF738FE804601E04FF00000D6
:101EA00006463EB9A069014655A00AF0E5FB4FF091
:101EB000FF30E1E7A06900F10100A061A068306097
:101EC000E0680660E66029463046FFF758FE0020CD
:101ED000D2E702464FF00003184604E000F1010388
:101EE00018460B6819460029F8D1704770B50546A9
:101EF00014461960216008461A460BE0066806B9C8
:101F000009E00668304616683246066806B902E0FF
:101F100006683046F2E700BF16681E604FF0000604
:101F2000166070BDF0B50646059D2C4628463EE07D
:101F300054B30F6847B3C0B11768B7B117683F6AA9
:101F4000D1F800C0DCF820C067450EDD1768D3F873
:101F500000C0CCF800701F683F681F601F683F68B2
:101F60001760A0F10107384621E00F68D3F800C0E0
:101F7000CCF800701F683F681F601F683F680F60E3
:101F8000A4F101073C4612E080B1176877B11768E9
:101F9000D3F800C0CCF800701F683F681F601F684E
:101FA0003F681760A0F10107384600E0F0BDBFE7C9
:101FB00030B587B00446206908B907B030BD206944
:101FC000014605AB06AA2046FFF790FF4FF001003F
:101FD000054643E0680000202E2E5C2E2E5C636FC9
:101FE0006D6D6F6E5C626C6F622E637070000000CE
:101FF00021616374697665426C6F62730000000052
:10200000626C6F62732025640A0000004FF00000CC
:102010000490039004A8029003A801900DE002AB85
:1020200005AA06A920460095FFF77CFF01AB05AA8B
:1020300006A920460095FFF775FF06980028EED107
:1020400005980028EBD1019908600299086004986E
:102050000690039805904FEA45000546059800282C
:10206000D4D10698206100BFA7E770B50646306955
:1020700000B970BD35692C680EE0286A216A884273
:1020800000DB06E04FF4DE72AFF2B40104A005F00D
:10209000C1FA254628680446002CEED100BFE8E7C7
:1020A000692D3E6D6F6D656E74732E617265612072
:1020B0003E3D206A2D3E6D6F6D656E74732E6172AC
:1020C000656100002DE9F04104460E464FF007031C
:1020D0004FF01C02FB4904F104000CF01AFEA0F1C1
:1020E000040004464FF0000004F1B404A0774FF060
:1020F0001400A0624FF0640020844FF0140060844C
:102100004FF00500A0856661218C01EB81014FEA4B
:10211000410108460CF0B1FDA0614FF00000A08322
:10212000A0844FF028000CF0B1FD0746E6480146B8
:10213000384600F015FF074644F8B40D4FF0000094
:1021400005460AE0C5EBC502211D01EB82010846E8
:10215000FFF7B2FD05F101000546072DF2DB204631
:10216000BDE8F08170B50446206830B121680846AA
:1021700000F00EFF05460CF07CFDD4F8CC100846AC
:102180000CF073FD07231C22D049201D05F0B8FB7D
:10219000204670BDF0B506460B4614464FF00007CA
:1021A0003D4639463A4638462FE033F8117047B974
:1021B00012B903EB41073A4600F10107BFB23846B6
:1021C0001BE0CAB133F81170178001F1010733F831
:1021D0001770578001F1020733F81770978001F1EB
:1021E000030733F81770D78001F1040733F817702D
:1021F000178102F10A073A4600BF05F10107BFB295
:102200003D4601F10507BFB23946A542CDDBF0BD21
:102210002DE9FC4F96464FF0000004460246009020
:1022200069E031F8120000B95DE002F1010031F817
:10223000105002F1020031F8106002F1030031F891
:10224000107002F1040031F810C004F1010080B2F6
:10225000019002F1050080B2034640E031F813001E
:1022600000B933E003F1010031F8108003F10200FE
:1022700031F8109003F1030031F810A003F10400CD
:1022800031F810B045450FDC4E450DDB57450BDCF2
:10229000DC4509DB4FF0000021F81300009800F145
:1022A000010080B2009010E0A8450EDCB1450CDBC7
:1022B000BA450ADCE34508DB4FF0000021F81200C4
:1022C000009800F1010080B2009000BF019800F179
:1022D000010080B2019003F1050080B2034601982D
:1022E0007045BBDB00BF04F1010080B2044602F17F
:1022F000050080B20246744593DB0098BDE8FC8F70
:102300002DE9F74F83B082464FF00000029003465C
:102310000090C2E031F8130000B9B5E003F101000C
:1023200031F810C003F1020031F8108003F103000E
:1023300031F8109003F1040031F810B0029800F168
:10234000010080B2019003F1050080B2024694E0E2
:1023500031F8120000B987E002F1010031F81040B5
:1023600002F1020031F8105002F1030031F8106060
:1023700002F1040031F8107064451BDCACEB050081
:10238000BAF8E0E0704515DCB14501DC5E4503DDDF
:10239000B9450FDC5F450DDC03F1010021F8104069
:1023A0004FF0000021F81200009800F1010080B207
:1023B000009058E045451BDBA4EB0800BAF8E0E0CC
:1023C000704515DCB14501DC5E4503DDB9450FDC28
:1023D0005F450DDC03F1020021F810504FF00000C2
:1023E00021F81200009800F1010080B200903AE05C
:1023F0004E451BDCA9EB0700BAF8E0E0704515DCA0
:10240000A44501DC444503DDAC450FDC45450DDC4E
:1024100003F1030021F810604FF0000021F81200D2
:10242000009800F1010080B200901CE05F451ADBCB
:10243000A6EB0B00BAF8E0E0704514DCA44501DC23
:10244000444503DDAC450EDC45450CDC03F10400DE
:1024500021F810704FF0000021F81200009800F1F0
:10246000010080B2009000BF019800F1010080B22D
:10247000019002F1050080B20246DDF814E00198F7
:102480007045FFF665AF00BF029800F1010080B211
:10249000029003F1050080B20346DDF814E00298D3
:1024A0007045FFF637AF009806B0BDE8F08FFEB577
:1024B00005464FF0FF3006464FF000000746044641
:1024C00061E00000351B001000200810D11B001037
:1024D00000BFD5F8C8100846694601F0CDFA0028BB
:1024E000F7D00098401C00D14EE004F101000446F2
:1024F000009818B906F10100064644E09DF8041062
:10250000009860F302018DF804109DF80400C0F3F8
:102510000200002836DDAFBBBDF8040066F3CB0037
:10252000ADF8040000984FEAD00000900098C0F386
:102530000800ADF8060000984FEA5020009000987F
:10254000C0F30800BDF80610C1F309010844ADF856
:1025500008009DF80410C1F30201A1F10101C1EBD3
:10256000C10205F1040101EB8201084601A9FFF750
:102570002DFC002806DA4FF0010007462146FAA09C
:102580000AF07AF800BFA3E700BF4FF0000004464E
:1025900012E0C4EBC402291D01EB82010846FFF7DB
:1025A000B2FBC4EBC402291D01EB82010846FFF710
:1025B000FFFC04F101000446072CEAD3FEBD2DE91F
:1025C000F04F85B004462046FFF771FF4FF0000042
:1025D00081464FF0010084F8D2004FF0000006461B
:1025E000A4F8D00080E004F1CC04A08800EB8000C7
:1025F00005464FF000008246206800EB450BA0889E
:10260000A4F1CC040490C6EBC60104F1040000EB75
:1026100081000069074643E000BF386AD4F8DC1047
:10262000884200DA37E06846398A0391798A029154
:10263000B98A0191B988C1F3C801018000BF06F1D0
:10264000010054F8CC1F21F81500BDF80C1005F15D
:102650000100226822F81010BDF8041005F10200F4
:10266000226822F81010BDF8081005F10300226856
:1026700022F81010BDF8001005F10400226822F8BD
:102680001010A08800F10100A080A4F1CC0405F195
:102690000500054600BF386807460AF1010082467A
:1026A0004FB1B4F8D000B4F8D410884203DAB4F8CB
:1026B000D6005045B0D812E0B4F8D0100498081AEB
:1026C00080B2024659462046FFF71AFE8046B8F10E
:1026D000000F00D104E009EB080080B28146EBE76F
:1026E00000BF06F101000646072EFFF47CAFB4F8E8
:1026F000D0000246D4F8CC0001462046FFF788FD02
:10270000484480B28146B9F1000F16D0B4F8D00029
:102710000246D4F8CC0001462046FFF73BFD804638
:10272000B4F8D000A0EB0800A4F8D000C84504D04D
:102730004A46414690A009F09FFF4FF00000A4F8E0
:10274000D80084F8D20006460AE0C6EBC602211D76
:1027500001EB82010846FFF7AFFA06F101000646D9
:10276000072EF2D305B0BDE8F08F2DE9F04F0346F8
:102770008C46904661464FF007008146B3F8D8007A
:1027800000EB80000446B8F1100F02D20020BDE833
:10279000F08F93F8D20028B9B3F8D800B3F8D0A0DE
:1027A000504506DB4FF00000088048804FF00200E3
:1027B000EDE7B3F8D80048B94AF65520088009F18A
:1027C000010080B2814601F1020001464AF655201F
:1027D000088053F8CC0F30F81400024615468A8062
:1027E00004F10200D3F800A03AF810A004F10100AF
:1027F000D3F800B03BF81000AAEB000086B205EB5E
:10280000060080B205464E8104F10400D3F800A012
:102810003AF810A004F10300D3F800B03BF8100020
:10282000AAEB000087B205EB070080B205468F8156
:1028300004F1010AD3F800B03BF81AA0304606EBC9
:10284000D07B0AEB6B0A1FFA8AFA524605EB0200AC
:1028500080B20546CA8004F1030AD3F800B03BF801
:102860001AA0384607EBD07B0AEB6B0A1FFA8AFAEC
:10287000524605EB020080B205460A814D809889D8
:1028800000F101009881A3F1CC034FEA49404FEADF
:1028900010407CE710B502460B4633B9B2F8D000C1
:1028A00000281BDDD2F8CC0010BD4FF000042146FB
:1028B00010E0D2F8CC0030F81100984204D1D2F8E0
:1028C000CC0000EB4100EFE704F10100044601F108
:1028D00005000146B2F8D000A042EADC0020E3E7A0
:1028E000D0F8CC300B60B0F8D0301360704710B522
:1028F0000446642901DCA4F8D410A4F8D620C4F856
:10290000DC30002010BD2DE9F04389B004460D46AF
:1029100090469946109F01A80AF0E6FA072D04DDBB
:102920004FF0FF3009B0BDE8F083216808464B4600
:10293000424601A900F0A4FC064616B94FF0FF304C
:10294000F0E721680846294600F0F2FA21680846B7
:102950002A4601A901F04BF827B1202201A93846E7
:1029600004F01EFF3046DDE7686561702066756C17
:102970006C2025640A0000002A2A2A2A20256420C7
:1029800025640A002DE9F0478AB004460D469146B9
:102990009A46DDE9126708A84FF00001C1808180E6
:1029A0004180018000BF68460AF09EFA216808460F
:1029B00053464A4608A900F0D8FD2168084608ABEE
:1029C0004A46694600F05CFC8046B8F1000F04D12D
:1029D0004FF0FF300AB0BDE8F0872168084629466D
:1029E00000F0A6FA216808462A46694600F0FFFF73
:1029F0001FB1089838600998786026B1202269468E
:102A0000304604F0CDFE4046E4E72DE9FC4F054694
:102A10000E4617469A464FF0000E0EEB860ED5F87E
:102A2000CC0030F81E0000B2024612B90020BDE80A
:102A3000FC8F02F0070001904FEAE200024655F8D1
:102A4000CC0F4FF0010E0EEB860E30F81E004FEA51
:102A5000E00C4FF0020E0EEB860E286830F81E00D8
:102A60004FEAE0034FF0030E0EEB860E286830F8B5
:102A70001E004FEAE00855F8CC094FF0000E0EEBAF
:102A8000870E30F81E0001B209B90020CFE701F02F
:102A900007000090DDE9000E864501D10020C6E761
:102AA0004FEAE100014655F8CC0F4FF0010E0EEB56
:102AB000870E30F81E004FEAE0094FF0020E0EEBD1
:102AC000870E286830F81E004FEAE00455F8CC095C
:102AD0004FF0030E0EEB870E30F81E004FEAE00BAE
:102AE0008A420FDBA2EB090050450BDCA34201DC5C
:102AF000444505DD5B4505DCC34501DD9C4201DC49
:102B0000012094E791420FDBA1EB0C0050450BDC58
:102B1000A34201DC444505DD5B4505DCC34501DD21
:102B20009C4201DC012082E7A3420FDBA3EB0B00F8
:102B300050450BDC8A4201DC614505DD4A4505DC78
:102B4000E14501DD914201DC012070E79C420FDB91
:102B5000A4EB080050450BDC8A4201DC614505DD31
:102B60004A4505DCE14501DD914201DC01205EE7DB
:102B700000205CE72DE9F0474FEA8109D0F8CC80CE
:102B800038F8198008F00708444623464FEAC3087E
:102B900043464FEA8209D0F8CC8038F8198008F013
:102BA0000708444643EA040843464FEAC30843463D
:102BB0004FF0000909EB8109D0F8CC8038F8198072
:102BC0004FEAE8084FF0000A0AEB820AD0F8CC90EE
:102BD00039F81A90B8EBE90F0ADA4FF0000909EB5F
:102BE0008109D0F8CC8038F819804FEAE80809E06C
:102BF0004FF0000909EB8209D0F8CC8038F8198031
:102C00004FEAE8081FFA88F54FF0010909EB81093E
:102C1000D0F8CC8038F819804FEAE8084FF0010A64
:102C20000AEB820AD0F8CC9039F81A90B8EBE90F89
:102C30000ADD4FF0010909EB8109D0F8CC8038F8A2
:102C400019804FEAE80809E04FF0010909EB820911
:102C5000D0F8CC8038F819804FEAE8081FFA88F6D7
:102C60004FF0020909EB8109D0F8CC8038F81980BF
:102C70004FEAE8084FF0020A0AEB820AD0F8CC903B
:102C800039F81A90B8EBE90F0ADA4FF0020909EBAC
:102C90008109D0F8CC8038F819804FEAE80809E0BB
:102CA0004FF0020909EB8209D0F8CC8038F819807E
:102CB0004FEAE8081FFA88F74FF0030909EB81098A
:102CC000D0F8CC8038F819804FEAE8084FF0030AB2
:102CD0000AEB820AD0F8CC9039F81A90B8EBE90FD9
:102CE0000ADD4FF0030909EB8109D0F8CC8038F8F0
:102CF00019804FEAE80809E04FF0030909EB82095F
:102D0000D0F8CC8038F819804FEAE8081FFA88FC20
:102D1000B0F8DA8008EB8809B0F8D08009EB8808B1
:102D2000D0F8CC9029F81830B0F8DA8008EB880990
:102D3000B0F8D08009EB880808F10108D0F8CC90F1
:102D400029F81850B0F8DA8008EB8809B0F8D0807C
:102D500009EB880808F10208D0F8CC9029F818602F
:102D6000B0F8DA8008EB8809B0F8D08009EB880861
:102D700008F10308D0F8CC9029F81870B0F8DA8080
:102D800008EB8809B0F8D08009EB880808F104083E
:102D9000D0F8CC9029F818C0B0F8DA8008F1010812
:102DA000A0F8DA804FF0000808EB810AD0F8CC9048
:102DB00029F81A804FF0010A0AEB810AD0F8CC906A
:102DC00029F81A804FF0020A0AEB810AD0F8CC9059
:102DD00029F81A804FF0030A0AEB810AD0F8CC9048
:102DE00029F81A8008EB820AD0F8CC9029F81A80CA
:102DF0004FF0010A0AEB820AD0F8CC9029F81A8029
:102E00004FF0020A0AEB820AD0F8CC9029F81A8017
:102E10004FF0030A0AEB820AD0F8CC9029F81A8006
:102E2000BDE8F08770B504464FF00000A4F8DA0062
:102E3000054619E005F1010006460EE00A23324678
:102E400029462046FFF7E1FD20B1324629462046BB
:102E5000FFF790FE06F101000646B4F8D000B0423C
:102E6000ECDC05F101000546B4F8D000A842E1DC35
:102E700070BD000010B504464FF0000120460DF073
:102E80008DFC01D2F84810BD4FF07E50FBE77FB5B6
:102E9000039A1146019A10460DF098FC0446029AD6
:102EA0001146009A10460DF091FC054621460DF0A2
:102EB00022FC04B070BD2DE9F04107460D463C46AA
:102EC0000BE0204604F080F906461EB12C60304627
:102ED000BDE8F081A4F580700446002CF1DA4FF0D3
:102EE0000000286000BFF3E72DE9FF41029A114678
:102EF000009A10460DF0E0FC0546039A1146019A2F
:102F000010460DF0D9FC0646314630460DF05EFC09
:102F10000746294628460DF059FC804639460DF0F3
:102F2000EAFB044620460CF083FF04B0BDE8F081C4
:102F300010B502464FF0000318460DE029B11368A2
:102F40001B5C03F007038B4203D14FF000031468AE
:102F5000235400F101031846B0F5803FEED310BDB5
:102F600030B504460D462560C04820614FF07E50C4
:102F70006061A061BE48E0614FF080402062BD48C2
:102F800060624FF000012046FFF7D2FF204630BDBF
:102F9000704710B50446E1616261A3614FF0000023
:102FA00010BD2DE9F84F05460F4691464FF0000140
:102FB00048460DF064FC02D24FF0010001E04FF0F2
:102FC000000082464FF0000426463BE0696801EBB2
:102FD000440191F9001008460DF0D2FB00903868CA
:102FE000014600980DF0F2FB83467868014658468A
:102FF0000DF081FB8046BAF1000F10D0696801EB3B
:10300000440191F9011008460DF0BAFB8346414690
:103010000DF0C4FB13D206F1010006460FE069680B
:1030200001EB440191F9011008460DF0A9FB83461C
:1030300041460DF024FC02D206F10100064604F1DF
:1030400001000446A868A042C0D83046BDE8F88F09
:103050002DE9FF4704461D4622E0A16808460DF011
:1030600096FB81462846FFF705FF8246524601A996
:103070002046FFF796FF80460DF089FB074649463C
:103080000DF04EFB0646606A014630460DF0F7FB38
:1030900000D806E00299084629460DF02CFB029064
:1030A000DBE700BF029804B0BDE8F08770B50646C4
:1030B0000C46206820F000410D466F4928460DF06F
:1030C0006DFB0AD22168084600210DF0D8FB02D220
:1030D0006948206001E06948206070BD2DE9FC412D
:1030E00004460E464FF000000546019000901CE09B
:1030F000616801EB450191F9001008460DF040FBB5
:10310000074601990DF0F7FA0190616801EB45015E
:1031100091F9011008460DF033FB074600990DF0B8
:10312000EAFA009005F101000546A068A842DFD840
:10313000A16808460DF02BFB0746394601980DF0B3
:10314000EFFA0190A16808460DF021FB07463946C9
:1031500000980DF0E5FA009001A92046FFF7A6FFC0
:1031600069462046FFF7A2FF019830600098706022
:10317000BDE8FC812DE9FC4F1446B4F802B04BF0D9
:10318000010BB1F904E0D1F800A00BFB0EAAB4F8D2
:1031900000B04BF0010BDA4455464FF0000A56469A
:1031A000534655E04FF0000A524641E015F802C080
:1031B000A2F1010A15F80A80B1F904A0CAF1000AC7
:1031C000924415F80A70B1F904A0CAF1000A9244B9
:1031D000AAF1010A15F80A90ACEB080ACDF804A090
:1031E000A9EB070ACDF800A0DDF804A04FEA6A0AAF
:1031F000CDF804A0DDF800A04FEA6A0ACDF800A0DF
:10320000DDF804A04FFA8AFAD0F804B00BF813A046
:10321000DDF800A04FFA8AFAD0F804B00BEB430BAC
:103220008BF801A002F1020A524603F1010A53464B
:10323000B4F804A0924503D9D0F80CA09A45B5D8AB
:1032400006F1020A5646B1F904A005EB4A0A5546B2
:10325000B4F806A0B24503D9D0F80CA09A45A1D87D
:103260008360BDE8FC8F0000000080BFCDCCCC3D6A
:10327000000070416666663F6F12833A6F1283BA30
:103280002DE9FF4F93B004460D4611A80BF07CFBCF
:1032900004F10C0144F62060FFF70DFE60606068E9
:1032A00020B94FF0FF3017B0BDE8F08FE0684FEA6B
:1032B0005000E0602046DDE91512FFF75BFF11A921
:1032C0002046FFF70BFF1298039011980490DDE958
:1032D00003010CF01BFB074600BF00BF38460CF093
:1032E0009FFD049038460BF0B0FC039001460BA8FC
:1032F000049A0BF046FB38460BF0ADFC0022014669
:10330000049009A809F004FEFF4938460DF0F3F9CE
:10331000109010980BF09FFC804611980146404693
:103320000DF054FA03901298014603980DF0BBFA81
:1033300002464146049007A809F0EAFD0B9A11469F
:10334000226910460DF0ECF904900BF08AFC8246DD
:1033500053462046DDE90912FFF77AFE0646616909
:10336000084631460DF032FA03900BF07AFC3146F4
:1033700004900DF0C0F906466E60099828608AF046
:103380000040034604902046DDE90912FFF760FE85
:1033900006466169084631460DF018FA03900BF0B5
:1033A00060FC314604900DF07EFA0646EE60099806
:1033B000A8600C990846FFF75DFD0E9010980BF081
:1033C00044FC02902169084602990DF0A9F9039086
:1033D0000BF047FC04900E990DF0F8F982468AF044
:1033E0000040034604902046DDE90712FFF730FE57
:1033F00006460898014630460DF05EFA0190A06935
:10340000014601980DF0E2F902900BF02AFC0390BE
:103410000E990DF0DBF9314604900DF044FA0646A2
:103420000999084641460DF047FA01460490304696
:103430000DF076F983460998014658460DF0C6F915
:1034400002465946049005A80BF09BFADDE90523D6
:10345000DDE90B01FFF71BFD0D90DDE91123DDE92F
:103460000B01FFF714FD0F90E06901460D980DF078
:1034700095F919D2E26911460B9A10460DF0A6F99A
:103480000590E26911460C9A10460DF09FF90690DE
:103490000598014640460DF099F9049006980146BA
:1034A00004980DF000FA06466E61C5F81080534688
:1034B0002046DDE90712FFF7CBFD064608980146D6
:1034C00030460DF0F9F90190A2691146226A1046C2
:1034D0000DF07CF9009001990DF078F902900BF055
:1034E000C0FB03900E990DF071F9314604900DF078
:1034F00002F90646EE61C5F818806A691146EA6964
:1035000010460DF0BCF90CD2D5E90401CDE9030158
:10351000D5E90601C5E90401DDE90312C5E9061292
:1035200000BF6168084603F07EFEE06901460F981F
:103530000DF0C2F9754902900DF048F94FF0854140
:1035400003900DF0EDF804900DF00CF98146B9F1FF
:10355000000F02DA4FF000008146B9F1640F02DD7E
:103560004FF06400814648469DE62DE9F04788B05B
:10357000064689461546984606A80BF005FA04A8A3
:103580000BF002FA02A80BF0F5F968460BF0F2F91D
:1035900006F10C0144F62060FFF78DFC7060706846
:1035A00020B94FF0FF3008B0BDE8F087F0684FEA6F
:1035B0005000F060B8F80000042804DDB8F80000FE
:1035C000A0F1040001E04FF0000080B2ADF800006F
:1035D000B8F80200042804DDB8F80200A0F10400E5
:1035E00001E04FF0000080B2ADF802004FF008009B
:1035F000ADF80400BDF80000BDF804100844B5F9AA
:103600000410884207DDA888BDF80010A0EB010077
:1036100080B2ADF804004FF00800ADF80600BDF828
:103620000200BDF806100844B5F90610884207DD0F
:10363000E888BDF80210A0EB010080B2ADF80600EA
:103640006A4629463046FFF795FD06A93046FFF742
:1036500045FD4FF0000749E14FF00000044642E10C
:10366000012000FA04F0384200D038E124BBBDF854
:103670000000042807DDBDF80000A0F1040080B2BE
:10368000ADF808000BE04FF00000ADF808004FF077
:10369000010000FA04F040EA0700C0B20746BDF896
:1036A0000200ADF80A004FF00400ADF80C00BDF8C0
:1036B0000600ADF80E0094E0012C29D1BDF80200FF
:1036C000042807DDBDF80200A0F1040080B2ADF8C7
:1036D0000A000BE04FF00000ADF80A004FF00100C7
:1036E00000FA04F040EA0700C0B20746BDF8000047
:1036F000ADF80800BDF80400ADF80C004FF0040070
:10370000ADF80E006DE00000DA0FC93F0000C842BE
:10371000022C33D1BDF80000BDF804100844001D90
:10372000B5F90410884214DDA888BDF80010A0EB9C
:103730000100BDF80410A0EB010080B2ADF80C0050
:103740004FF0010000FA04F040EA0700C0B207465B
:1037500003E04FF00400ADF80C00BDF80000BDF828
:103760000410084480B2ADF80800BDF80200ADF8BE
:103770000A00BDF80600ADF80E0032E0BDF8020008
:10378000BDF806100844001DB5F90610884214DD86
:10379000E888BDF80210A0EB0100BDF80610A0EB10
:1037A000010080B2ADF80E004FF0010000FA04F005
:1037B00040EA0700C0B2074603E04FF00400ADF84E
:1037C0000E00BDF80000ADF80800BDF80200BDF81D
:1037D0000610084480B2ADF80A00BDF80400ADF848
:1037E0000C0002AA29463046FFF7C4FC04A9304663
:1037F000FFF774FCDDE90423DDE90601FFF774FB44
:103800008246974950460DF03AF801D3B06840B966
:103810004FF0010000FA04F040EA0700C0B207468A
:103820004EE0BDF80800BDF8001088420CDABDF883
:103830000800ADF80000BDF80400BDF80C10084405
:1038400080B2ADF804003BE0BDF80A00BDF80210FC
:1038500088420CDABDF80A00ADF80200BDF8060097
:10386000BDF80E10084480B2ADF8060028E0BDF89F
:103870000800BDF80C100844BDF80010BDF8042085
:103880001144884208DDBDF80400BDF80C1008445E
:1038900080B2ADF8040013E0BDF80A00BDF80E10C8
:1038A0000844BDF80210BDF806201144884207DD27
:1038B000BDF80600BDF80E10084480B2ADF8060051
:1038C0000F2F0BD10098C9F800000198C9F8040027
:1038D0007168084603F0A7FC002064E600BF04F10D
:1038E0000100C0B20446042CFFF6BAAEB4E62DE9DE
:1038F000F04780460C46154695F9001008460CF036
:103900003FFF81462068014648460CF05FFF0746AE
:103910006068014638460CF0EEFE064695F9011047
:1039200008460CF02DFF074631460CF0A8FF02D2E6
:103930000020BDE8F08795F9001008460CF020FF44
:103940008146A068014648460CF040FF0746E06803
:10395000014638460CF0CFFE064695F901100846A0
:103960000CF00EFF074631460CF018FF01D2002084
:10397000DFE795F9001008460CF002FF8146206948
:10398000014648460CF022FF07466069014638466A
:103990000CF0B1FE064695F9011008460CF0F0FE59
:1039A000074631460CF06BFF01D20020C1E795F9C4
:1039B000001008460CF0E4FE8146A0690146484626
:1039C0000CF004FF0746E069014638460CF093FE10
:1039D000064695F9011008460CF0D2FE074631461E
:1039E0000CF0DCFE01D20020A3E70120A1E7F8B52E
:1039F00005460F46164668464FF0000141700170BB
:103A000000BF396808464FF000010CF093FE00D16A
:103A1000F8BD4FF000041DE060B28DF801004FEAE0
:103A2000142040B28DF800002868005D10F0070FE8
:103A300005D02868005D00F00700B04207DB6A4649
:103A400039462846FFF753FF08B12868065504F1A8
:103A500001000446B4F5803FDED300BFD8E7000084
:103A6000000048414A4901604FF0000201680A60C5
:103A70004A608A607047704730B502461068808897
:103A80001468E488A0EB040080B20346E3B1106838
:103A9000048804F1010015682880106800F108000E
:103AA00050F8240008601068C08800F10100146814
:103AB000E08010680088A0F53064FE3C02D120460A
:103AC00014682080012030BD0020FCE7F0B50346DB
:103AD0000C461E68B6881F68FF88A6EB0706B6B2BC
:103AE00031464FF0000630461E683688354615E0F0
:103AF0001E6806F108062F4605F1010C1FFA8CFC22
:103B0000654656F8276044F82060A5F53066FE3E0D
:103B100000D1354600F10106B6B23046884201DADE
:103B20009042E5D31E68F6880E441F68FE801E682A
:103B300036880E441F683E801E68368840F6FE3781
:103B4000BE4205D31E683688A6F6FE361F683E8044
:103B5000F0BD026892880368DB88A2EB030292B290
:103B600011460268D2880A440368DA800268128823
:103B70000A4403681A800268128840F6FE339A42AB
:103B800005D302681288A2F6FE3203681A807047D5
:103B900000C000200146FE48814201D1002070474C
:103BA000FC48814201D10120F9E74FF0FF30F6E7F0
:103BB00001464FF0080088614FF02000086000BF08
:103BC000086810F0080FFBD04FF0200088614868AB
:103BD00000F0F8007047016811F0200F02D04FF09C
:103BE000200181614FF0100101604FF008018161F7
:103BF00070470246106810F0200F02D04FF02000EE
:103C0000906191604FF00800906100BF106810F063
:103C1000080FFBD0506800F0F80070470346012AF7
:103C200003D14FF00400186002E04FF004009861E7
:103C30004FF00800986100BF186810F0080FFBD023
:103C400098680870586800F0F800704770B504462E
:103C50000D46CF48844210D11A21092005F008FAF8
:103C6000CD48854204D340F68C40CC49086017E02B
:103C700040F60800C949086012E0C64884420ED1E7
:103C80001B21092005F0F4F94FF0C100C449086078
:103C9000C449C1F81001C448854201D070BDFDE798
:103CA000B5F57A7F00D2F9E74FF06C00A0614FF0D4
:103CB000110005F025FAB0FBF5F64FEA5600206139
:103CC0002069A6EB0000606100BFE7E74FF040010C
:103CD00081617047012903D14FF04002026002E088
:103CE0004FF040028261704770B504460D466DB1D9
:103CF000A748844203D1122000F07CFC13E0A548C1
:103D0000844210D1132000F075FC0CE0A0488442DE
:103D100003D1122000F07DFC05E09E48844202D1D0
:103D2000132000F076FC70BD2DE9F04105462846D1
:103D3000FFF730FF06469D4850F836000446686895
:103D400000F0F80007466762F82F04D14FF0080032
:103D5000A861BDE8F081954800EBC60040680028E6
:103D60005FD1202F50D006DC082F0BD0102F0AD0A7
:103D7000182F54D118E0282F17D0302F45D0382FC6
:103D80004DD147E000BF4FF02000A861606848B106
:103D9000A06838B120684FEA4000A8604FF00800E2
:103DA000A86100E014E03BE000BFD4E902108842C3
:103DB0000DD2606858B1E1686068405CA860E06856
:103DC00000F10100E0604FF00800A8611BE000BFB7
:103DD0004FF00100754901EBC6014860606968B1A8
:103DE000206958B1A06840B1606830B14FF0200040
:103DF00028604FF00C00A86105E032E0606A40F4F2
:103E0000806060629CE00BE000BF606A40F400707C
:103E1000606282E0606A40F48070606200BF7CE0B3
:103E20009CE0624800EBC60040680128F8D1402FB2
:103E300027D006DC082F0BD0102F0AD0382F6BD1DB
:103E400065E0482F5ED0502F2BD0582F64D146E02C
:103E500000BF4FF02000A861206960B1606950B1D7
:103E600000BF4FF00101206801EB4000A8604FF057
:103E70000800A86104E0606A40F4806060625FE06E
:103E80006BE0D4E90501401E814203D24FF00400EB
:103E9000286002E04FF00400A8614FF00800A8611C
:103EA0005BE0206958B1D4E90510884207D2A868C0
:103EB000A26921698854A06900F10100A061D4E9D8
:103EC0000501401E814203D24FF00400286002E049
:103ED0004FF00400A8614FF00800A8613DE02069A0
:103EE00058B1D4E90510884207D2A868A2692169AF
:103EF0008854A06900F10100A061606A40F480600C
:103F000060621DE0606A40F40070606205E0606A13
:103F100040F48070606200BF00BFD4E9071088429F
:103F20000DD24FF00000E0604FF0200028604FF00D
:103F30000C00A861206A00F1010020620CE000BFC3
:103F400000212846FFF7D0FE2846FFF744FE4FF039
:103F50000100174941F8260000BF00BF00BFF8E686
:103F60002DE9F04104462046FFF714FE80460F4835
:103F700050F838000546606800F0F8000646AE616B
:103F8000F82E17D14FF00800A061BDE8F0810000C5
:103F900000100A4000000E4040420F00846C0840B0
:103FA0000C61084000600840801A0600F001002003
:103FB0000802002016F0070F7AD1F0100C381428F0
:103FC00076D2DFE800F011751275192F1A303453CC
:103FD0007554697575757575750A4FF00400206024
:103FE0004FF00800A06171E000BF4FF004002060B6
:103FF0004FF00800A06169E000BFD5E904108842D5
:1040000009D2E86838B1A0686A69E96888546869C3
:1040100000F1010068614FF0040020604FF00800DB
:10402000A06153E000BF4FF00800A0614EE0002106
:104030002046FFF759FE4FF00800A0614FF480378B
:1040400011E0206810F0080F04D001212046FFF78E
:104050004BFE09E0A7F10100074627B9A86940F423
:104060008060A86125E0ECE700BF2FE000BFD5E944
:104070000110884209D2286838B1A9682868405CD4
:10408000A060A86800F10100A8604FF00400206063
:104090004FF00800A06119E04FF0040020604FF0DD
:1040A0000800A061A86940F48060A86101E0FFE712
:1040B00000BF00212046FFF717FE4FF02C00A06143
:1040C0004FF00100FB4941F8280000BF00BF00BFCE
:1040D0005BE72DE9F84306460C46174660688046C4
:1040E000206981464FF00000E060A0616062002F0F
:1040F00075D1206200BF60688046206981464FF01C
:104100000000E060A06105463046FFF751FD05461E
:10411000082D0CD0102D0AD0206A00F10100206279
:10412000D4E90710884201D96562BAE0E3E7A068E4
:1041300078B3606868B320684006000E01463046D8
:10414000FFF757FD0546182D0CD0206A00F101003D
:104150002062D4E90710884203D945F400706062F8
:104160009FE0C8E71DE098F8000001463046FFF7E1
:1041700040FD0546282D0DD0206A00F10100206287
:10418000D4E90710884203D945F40070606288E0E2
:10419000B1E70AE008F101008046E06800F10100A3
:1041A000E060D4E902108842DDD3A068C8B160683D
:1041B000B8B16069A8B1206998B13046FFF7F8FC42
:1041C0000546082D0DD0102D0BD0206A00F10100FE
:1041D0002062D4E90710884202D9656261E065E097
:1041E00089E76069002856D02069002853D0012251
:1041F000206802EB4000C0B201463046FFF7F9FCF0
:104200000546402D0CD0206A00F101002062D4E95F
:104210000710884203D945F40070606241E06AE704
:1042200035E0D4E90501401E814212D201226946DF
:104230003046FFF7F3FC0546502D1DD0206A00F1F3
:1042400001002062D4E90710884201D9656228E0A4
:1042500051E7002269463046FFF7E0FC0546582D3D
:104260000AD0206A00F101002062D4E907108842D8
:1042700001D9656215E03EE79DF8000089F800006D
:1042800009F101008146A06900F10100A061D4E9B3
:1042900005108842C5D33046FFF79DFC0120BDE8DC
:1042A000F8833046FFF797FC0020F8E7012F2ED166
:1042B0003046FFF76FFCC0B200907F489DF80010B9
:1042C00040F831404FF000007B499DF8002001EBA1
:1042D000C20148604FF00800B0614FF0200030602C
:1042E0004FF001013046FFF7FFFC00BF73489DF817
:1042F000001050F821000128F8D14FF000006F495C
:104300009DF8002041F822004FF00100C7E700208F
:10431000C5E72DE9F84F04460D4616462868814644
:10432000E86882464FF00000A8606861A861002E2E
:1043300075D14FF0040020604FF02800A0614FF0CD
:1043400000000090834687E0206810F0080F7AD0C4
:104350004FF000000090606800F0F80717F0070FBA
:104360006CD1F8100C38142868D2DFE800F011671F
:10437000126719311A32364067415A6767676767B3
:10438000670A4FF0040020604FF00800A06159E078
:1043900000BF4FF0040020604FF00800A06151E022
:1043A00000BFD5E9041088420BD2E86848B1A06884
:1043B0008AF800000AF101008246686900F10100F4
:1043C00068614FF0040020604FF00800A06139E000
:1043D00000BF4FF00800A06134E04FF00800A0617A
:1043E0004FF0010000904FF0000083462AE000BF2C
:1043F000D5E9011088420BD2286848B199F800002D
:10440000A06009F101008146A86800F10100A860E0
:104410004FF0040020604FF00800A06112E02DE092
:1044200011E04FF0040020604FF00800A0614FF051
:10443000010000904FF00000834603E04FF00800B9
:10444000A06114E008E0009830B15846411C8B464A
:10445000B0F5803F00D900E076E74FF00400A0619E
:1044600047F48060A8614FF00100BDE8F88F4FF07D
:104470000400A061AF614FF00000F6E7012E1FD1EC
:104480002046FFF787FB80460B4840F838503046FF
:10449000094901EBC80148604FF0040020604FF06B
:1044A0002800A0614FF001012046FFF71DFC01200C
:1044B000DBE7000014020020F001002008020020C9
:1044C0000020D2E710B58B78012B00D101E04FF02E
:1044D00000034C7843EA4403DAB20B7833B1012B82
:1044E0000AD0022B0ED0032B18D111E0C260CB787A
:1044F00003F0FE03036311E00262CB7803F0FE04D5
:1045000044630BE04262CB7803F0FE04846305E071
:104510008262CB7803F0FE04C46300BF00BF10BD0D
:1045200010B5012A04D1C36943EA0103C36107E05E
:10453000C3694FF0070424EA010403EA0403C361DA
:1045400010BD01290AD1C26942F00102C2614FF0D7
:10455000040202604FF02802826106E0C26902F0A4
:104560000602C2614FF02C0282614FF000022F4B15
:104570001A6070470146C86AC0B2704730B503463A
:104580004FF0000420464FF008049C61DC6A274D80
:104590002D684C55254C246804F10104234D2C60F2
:1045A0002C462468944202D34FF00104204630BDCB
:1045B00070B505462846FFF7EDFA04461C4850F84A
:1045C000240006464FF00000194941F82400304607
:1045D00070BD70B505462846FFF7DCFA044615485D
:1045E00050F8240006464FF00000124941F824001C
:1045F000304670BD00F01F024FF0010101FA02F1D8
:104600004FEA50124FF0E02303EB8202C2F8001190
:10461000704700F01F024FF0010101FA02F1064A53
:104620004FEA501342F82310704700006C0000203E
:10463000080200201402002080E100E038B50446A2
:104640006068406800F0F8000546C02D47D004DCE3
:10465000A82D0FD0B82D4BD10DE0C82D3ED0F82D90
:1046600046D14FF00400616808604FF008006168AF
:10467000886142E000BF00BFE06A78B9236A19464A
:10468000636A1846236B1A469047E062E06A10B9E5
:104690004FF000000FE04FF00000A062A16A01F1AE
:1046A0000100A062606A405C0090E06AA0F1010035
:1046B000E0624FF0010020B19DF800006168886061
:1046C00003E04FF00000616888604FF0040061680B
:1046D00008604FF00800616888610EE000BF4FF08D
:1046E0000400616808604FF008006168886104E0B8
:1046F0004FF02C006168886100BF00BF38BD10B565
:104700005F480068FFF79AFF10BD38B504460D46B4
:104710008DF801504FF000008DF803008DF8000077
:10472000616808466946FFF7CDFE002038BD2DE9D7
:10473000F04705460F4690461E46524952482860AB
:1047400005F108044FF02009C4F8009021680846DC
:104750000AF093FA60604FF00000A060E060206112
:10476000606100BFA4F10804254605F12004C4F8E7
:104770000090216808460AF080FA60604FF000005F
:10478000A060E060266100BFA4F1200425466F60B0
:10479000696808463D49FFF759FA41462846FFF740
:1047A000B4FF4FF017004FF0000100280ADA4FEA7B
:1047B00001724FEA1262364B00F00F04A4F10404B8
:1047C0001A5505E04FEA01724FEA1262314B1A5452
:1047D00000BF2846BDE8F08770B504464FF03400AE
:1047E0000AF054FA0546234654222B49FFF79FFF4F
:1047F00005462348056070BD4FF03801426891615D
:104800004FF0440142681160704710B503464FF005
:104810000000224908604FF012004FF0010101FA38
:1048200000F14FEA50124FF0E02404EB8202C2F88C
:10483000001100BF1846FFF7DFFF002010BD10B5C4
:1048400001464FF012004FF0010202FA00F2144B41
:104850004FEA501443F8242000BF4FF0000010BD71
:1048600003464FF00000704700B5034658680068E3
:1048700010F0040F02D11846FFF7BEFF002000BD64
:10488000700000205C300110B42F0110A0860100E0
:1048900018ED00E000E400E000100A40181210409B
:1048A00080E100E070B504460D462A462146554891
:1048B0000068FDF75AFF70BD10B50446042C02DDF8
:1048C0004FF0FF3010BD5048006838B14E480068C6
:1048D0000068406801464C48006888474B480470AF
:1048E000052C22D2DFE804F02203080D1700484807
:1048F0000068454908601EE0464800684249086073
:1049000019E001214448006800F0B7F84248006807
:104910003D4908600FE000213F48006800F0ADF815
:104920003D4800683849086005E000BF3B48006822
:104930003549086000BF00BF334800680068006860
:1049400001463148006888470020BBE700B585B0C4
:10495000002000900123324A0146019031A007F067
:1049600053FF0020542101232D4A7832CDE9001055
:10497000102130A007F048FF00204FF49641042397
:10498000274AC032CDE9001001462DA007F03CFFB8
:10499000002204A923A007F0CBFF9DF81000FFF729
:1049A0008BFF002203A923A007F0C2FF9DF80C1083
:1049B00017480068FFF7A9FE002202A920A007F00F
:1049C000B7FF14480299006800F08BFC05B000BDE9
:1049D00010B5AFF22F10FFF7FFFEAFF2371000F067
:1049E0003BFAAFF23F1000F00CFC00F03BF8FFF791
:1049F000ADFF002010BD05480078704702480068F0
:104A0000704700000C000020780000207400002097
:104A100070000020840000207C0000208000002026
:104A20009021011044617461206F757420706F7261
:104A3000740000004932432061646472657373003E
:104A400055415254206261756472617465000000C2
:104A50004B494C4901604FF0010101714FF00001D9
:104A60004171704710B508200AF010F90446FFF7AD
:104A7000EFFF04464448046010BD0171704710B553
:104A800004464FF002034FF0F0024FF003014FF0E5
:104A900001000BF03DF94FF004003C4988624FF4EF
:104AA00080603B4908604FF008003A4948604FF089
:104AB000000010BD10B504464FF0000035494860B5
:104AC0004FF005034FF0F0024FF003014FF00100EB
:104AD0000BF01EF9002010BD70B506464FF0000126
:104AE0002D480068FDF7D6FE0446CCB3307990B16E
:104AF000A1886288A1EB0201084601EBD07102EBAC
:104B000061010D464FEA054005464FF4A070B5FB24
:104B1000F0F0054613E02189E288A1EB0201084686
:104B200001EBD07102EB6101C1F1C8010D464FEA02
:104B3000054005464FF0C800B5FBF0F005464FF6BE
:104B4000C07005EA0000054612480560707910B98A
:104B500064200BF019F84FF480601049086006E0FB
:104B6000FFE74FF000000D4908600A49086014B1E2
:104B70004FF0010001E04FF000007071002070BDA7
:104B80005C300110983001107C00002000101040B3
:104B90001812104000100E400C000020141210409B
:104BA000F8B504464FF48040FF4908604FF000001C
:104BB000FE49C1F81402FE48806806464FF0040022
:104BC000FB49086229E000BFA06A90B9E3695B0075
:104BD0001946236A1846E36A1A4690474FEA50007E
:104BE000A062A06A10B94FF0000010E04FF0000082
:104BF0006062616A01F101006062206A30F81100B0
:104C00000090A06AA0F10100A0624FF0010000B97D
:104C100008E0BDF80000E6498860E548C06810F08B
:104C2000020FD0D100BF06F47F40B0F5B44F24D1BD
:104C300004F10405B7B200BF28460BF08FFA2968CB
:104C4000A1EB0000002800DC12E0E96801F101009E
:104C5000E860686820F81170286900F10100286197
:104C60002968E868884202D14FF00000E86000BF80
:104C70004FF0010084F8300003E04FF0000084F8AA
:104C80003000606B00F101006063F8BD10B5C948E9
:104C90000068FFF785FF10BD02464FF48040C24B0D
:104CA00018604FF00000014608E0C348406910F06A
:104CB000040F00D004E001F1010001469629F4D36D
:104CC00000BF962915D14FF00000B74B1860014680
:104CD00008E0B948406910F0040F00D004E001F189
:104CE000010001461029F4D300BF102901D1012091
:104CF00070474FF00000AC4B186000BFF8E738B5C4
:104D000004464FF00000054602464FF00401A84853
:104D100004F0A0FC68460BF04FF80EE02046FFF7C9
:104D2000BBFF18B14FF00100054607E000980AF0FC
:104D300079FFA249884200D900E0EFE700BF0122D5
:104D400004219B4804F086FC284638BD2DE9F04339
:104D500087B004460E469A499A48206004F104053B
:104D60004FF00109C5F8009029684FEA4101084653
:104D700009F083FF68604FF00000A860E8602861D8
:104D8000686100BFA5F104052C4604F11C054FF035
:104D90001009C5F8009029684FEA4101084609F05A
:104DA0006CFF68604FF00000A860E8602E6100BFF3
:104DB000A5F11C052C4602900390834806904FF005
:104DC0000F0001904FF0040004904FF00000059098
:104DD00001A9774804F0CCFB4FF00000074605E03E
:104DE0007348D0F8088007F101000746082FF7D371
:104DF00001216F4804F0B0FB04216D4804F0AAFBC8
:104E0000012204216A4804F025FC4FF017004FF0FE
:104E1000000100280ADA4FEA01724FEA12626B4B76
:104E200000F00F05A5F104055A5505E04FEA01729F
:104E30004FEA1262664B1A5400BF4FF0000084F82C
:104E400030006063A06384F83C002046FFF757FF02
:104E5000204607B0BDE8F08370B504464FF040002F
:104E600009F014FF05462146FFF770FF054651483B
:104E7000056070BD10B504464FF004004B498863CF
:104E80004FF48040534908604FF005034FF0F002A3
:104E90004FF003014FF001000AF03AFF0523F02222
:104EA000042101200AF034FF0123F02213211846C7
:104EB0000AF02EFF4FF017004FF0010101FA00F148
:104EC0004FEA50124FF0E02303EB8202C2F80011C8
:104ED00000BF4FF0000010BD10B501464FF00000BC
:104EE0003C4A10604FF017004FF0010202FA00F246
:104EF000394B4FEA501443F8242000BF4FF0000014
:104F000010BD2DE9F04781460F461646BA464FEAD6
:104F1000560006464FF00000054626E009F104045D
:104F20000AEB450820460BF019F9002802DC4FF087
:104F3000000015E0A16801F10100A060606830F890
:104F40001100A8F80000606900F1010060612168AB
:104F5000A068884202D14FF00000A0604FF001002D
:104F600000B904E005F101000546B542D6D300BF03
:104F70006800BDE8F08710B50446D4E90D01401A79
:104F80003BD094F8300068BB14F83C0F00F10100EE
:104F9000207014F83C09052838D12046FFF7AFFEF1
:104FA0000EA007F069FB1EE0141210400010104024
:104FB00000500C408000002000610F4020A107003D
:104FC0005C300110CC2F011000CB280C18ED00E054
:104FD00000E400E01812104080E100E073796E6395
:104FE0000A00000004E04FF0000084F83C000DE0EF
:104FF0004FF0000084F83C0008E04FF48040054981
:1050000008604FF000000449C1F81402606BA0630F
:10501000002010BD1412104000101040F8B50446D6
:105020004FF0000084F834006068806800F00E00E3
:105030000546042D21D161680968C8B200BF00BFD0
:10504000D4E90612A1EB0201A268A2EB010100293A
:1050500000DC11E0626902F101016161E1688854DC
:10506000A16901F10101A161A2686169914202D1C6
:105070004FF00001616100BF38E00C2D02D1606883
:10508000076833E0022D31D14FF000062CE000BF5D
:10509000E06A78B9236A1946636A1846236B1A4690
:1050A0009047E062E06A10B94FF000000FE04FF067
:1050B0000000A062A16A01F10100A062606A405C88
:1050C0000090E06AA0F10100E0624FF0010038B109
:1050D0004FF0010084F834009DF80000616808601A
:1050E00006F10100C0B20646102ED0DBF8BD10B5A7
:1050F00081480068FFF792FF10BD2DE9FF4104468B
:105100000F4616467D497E48206004F108054FF0A1
:105110002008C5F800802968084609F0AEFD6860DF
:105120004FF00000A860E8602861686100BFA5F149
:1051300008052C4604F12005C5F8008029680846BA
:1051400009F09BFD68604FF00000A860E8602E61E8
:1051500000BFA5F120052C46676084F834004FF4A9
:10516000964000904FF003008DF805004FF00000CE
:105170008DF804008DF806006248029061680846C8
:10518000694604F0CBFC4FF000008DF80E008DF85E
:105190000F004FF001008DF80C008DF80D006168D4
:1051A000084603A904F07AFC61680846012104F06E
:1051B0008BFE616808460122002104F073FD6168DE
:1051C00008460122114604F06DFD4FF018004FF023
:1051D000000100280ADA4FEA01724FEA12624A4BD4
:1051E00000F00F05A5F104055A5505E04FEA0172DC
:1051F0004FEA1263454A135400BF204604B0BDE88D
:10520000F08170B504464FF0380009F03FFD0546C7
:1052100022463F49FFF771FF05463748056070BDDC
:1052200010B504464FF001034FF0F0024FF00001BB
:105230004FF002000AF06CFD0123F0221946022013
:105240000AF066FD0023F022032101200AF060FD30
:105250000023F022042101200AF05AFD4FF018002B
:105260004FF0010101FA00F14FEA50124FF0E02334
:1052700003EB8202C2F8001100BF4FF0000010BD26
:1052800010B504464FF004034FF0F0024FF0000158
:105290004FF002000AF03CFD0423F022012102201D
:1052A0000AF036FD4FF018004FF0010101FA00F14D
:1052B000184A4FEA501342F8231000BF4FF0000085
:1052C00010BD03464FF000007047014691F83400CE
:1052D00028B94FF000004A6810604A68106000204A
:1052E000704770B504460D4661680846054A294670
:1052F00004F008FE002070BD840000205C30011026
:105300000830011000CB280C18ED00E000E400E0AC
:105310000010084080E100E010B540EA01040346B7
:10532000A40703D00AE010C9121F10C3042AFAD838
:1053300004E011F8014B03F8014B521E002AF8D18A
:1053400010BD0346C9B202E003F8011B521E002A39
:10535000FAD1704740F203107047F7494860800463
:10536000800C06D0012808D0022808D0032808D0D5
:105370004869CA699207FCD47047087DF9E7888AB2
:10538000F7E7888A0A7D40EA0240F2E710B54FF459
:10539000001404EB415141EA006040EA0240184326
:1053A00010BD806A400302D54FF4C0107047002042
:1053B000704730B50D461346044600221146284674
:1053C000FFF7E4FF01462046FFF7EBFFBDE8304062
:1053D0000843C2E7D84B00B59A60FFF7E2FF0843E5
:1053E0005DF804EBB9E7F0B5D34C16460F46054619
:1053F000A36000231A4631463846FFF7C7FF01462F
:105400002846FFF7CEFF01436160E0698007FCD4C6
:10541000F0BD00220621CCE7F0B51C4615460E462D
:105420000746FFF7F6FF23462A4631463846BDE8D1
:10543000F040D8E7F0B51C4616460D460746FFF784
:10544000E8FFBD4B9E603846FFF7ABFF284340F4B2
:1054500000405860A804800C07D001280BD0A1B2EE
:1054600002280AD0032804D05C61D8698007FCD4E4
:10547000F0BD9982240C1C75F7E79982F5E7AE49D7
:10548000CB6913F0060F19D01022CA61CA6912F055
:10549000160FFBD15A0711D5C26902F46002B2F5AA
:1054A000400F0BD3FF220A73C0696FF30F0000F1A6
:1054B00001004860087DC8698007FCD470472DE969
:1054C000F041054600248C46EA7C012101FA02F1F4
:1054D000994F2046CEB2F9698907FCD444F620687A
:1054E000641C444507D2012205212846FFF761FFCD
:1054F000C0B23042F4D03042904E28750CD0BCF18E
:10550000000F0ED0BCF1010F0DD0BCF1020F06D080
:10551000BCF1030F0BD108E03046BDE8F081884CA8
:1055200005E0884C03E0884C01E04FF0FF3428464A
:10553000FFF737FF85490843E97C08437860F8693D
:10554000800702D5641EFAD11EE0ECB1387D2875C3
:10555000BCF1000F1ED0E86AE0B1C1B2052917D036
:1055600001222846FFF725FFC0B26875E96A10EAF4
:10557000112F0FD0C1F3074119B100222846FFF7C0
:1055800018FF6E48801CC8E72846FFF778FFC3E77E
:10559000287DEBE70020C0E730B5154604460B46F2
:1055A000002211460120FFF7F1FE01462B460022A2
:1055B0002046FFF73FFF208D800401D5002030BD3D
:1055C0002046BDE83040002179E7F0B50546C469C2
:1055D000806AA62681050BD504F42001B1F5000FE1
:1055E00006D144F40014EC61296A41F400112962E7
:1055F000810618D5400501D5022700E001273F1D8F
:10560000012285212846FFF7D4FE00F00703E86950
:10561000C7F1100100F4E020C840034301228121BA
:105620002846FFF7F9FE95F82800C00707D00023A9
:105630000322A3212846FFF7D6FE761EFDD1C4F330
:1056400042513D48062904D3A521C16024F44004F9
:1056500001E0FF21C1608461F0BD10B5044690F8FF
:105660002800000611D501222B212046FFF7A1FEBC
:105670006075A16A000621F4703102D54FF48030C4
:1056800001E04FF480400143A16210BD30B500231A
:10569000816383840723C38410E0838CCC882344F4
:1056A00083840B79C48CCD88DB0701D0022300E012
:1056B000012305FB03430831C384083A082AECD2CE
:1056C000C3F3CC01C18430BD826B22B109B1828C9D
:1056D0000A80C08C704711B18268120C0A80806801
:1056E000C00C704710B5044600F13C030021FFF7E1
:1056F000EBFF01001FD0A06A40F48070A06220463A
:10570000FFF74FFE40EA0102114802430A48426097
:1057100002E0027D03F8012B0A00A1F1010189B228
:10572000F7D100218034A34202D203F8011BFAE72B
:10573000C1698907FCD410BD00300040030002009D
:1057400070820300E09C41000083400A0040200575
:1057500000002072491C01228A404FF000618260E3
:105760008A4200D90A46C26070472DE9F0410D46D1
:105770000446C069FD491F461646884272D020463D
:10578000A562FFF76AFFA068B0F1807F1CD9A06A0C
:1057900040F40070A062207C012806D020280BD0A5
:1057A000C2280CD04FF00210B7E680230122172147
:1057B0002046FFF718FE07E02046FFF72AFE0022EA
:1057C000B7212046FFF7F5FD680504D5E8480168D4
:1057D00041F080510160DFF89C83680724D50122E5
:1057E00035212046FFF7E5FDC0B26075810755D42D
:1057F000C00735D1012205212046FFF7DAFD617D82
:1058000041F0020140EA012082B202212046FFF766
:10581000C3FE0028C8D1012235212046FFF7C9FD6B
:1058200060754FEA807019E0E8041CD5012205215B
:105830002046FFF7BEFDC0B2207541062ED440F0D1
:10584000400201212046FFF7A7FE0028ACD101222B
:1058500005212046FFF7ADFD2075400600281DDB21
:1058600040465AE652E0280718D501223F2120463B
:10587000FFF79FFDC0B2607501060FD440F08003B2
:1058800001223E212046FFF7C7FD01223F2120468D
:10589000FFF78FFD60754FEA0060DFE7A80705D5C9
:1058A000002238212046FFF784FD1BE0E80619D5C9
:1058B000680502D54FF0400C01E04FF0800C01224A
:1058C00065212046FFF775FDC0B2607510EA0C0F28
:1058D00008D040F0C80323EA0C03012261212046CE
:1058E000FFF79AFDC6F3C1400328A06A10D020F448
:1058F0008020A062280507D5C6F302435B1E012263
:10590000C0212046FFF76FFDC4E90767002004E6C9
:1059100040F48020EDE72DE9F041954D04469C468A
:10592000A86916460F4610F4400F50D00146C0F348
:10593000C140E16103284DD00020A0622046FFF75E
:105940009EFD0022FF212046FFF733FD00220123A8
:1059500011466520FFF71AFD40F4C010FFF7FDFC6B
:1059600055280CD040280AD3C02808D2810606D476
:1059700040F0C003012261212046FFF74DFD802247
:1059800000212046FFF7DDFC06F0C100C12824D02D
:105990004FF4702101EA074141EAC0504FF6FF7110
:1059A0000844286003229F212046FFF702FD4FF0A4
:1059B00000412061C4E9001530B16FF07F41884299
:1059C00002D06D4988420BD16A48401DA5E540F4DC
:1059D0004001ACE74FF48020AFE76648401E9CE5ED
:1059E0004FF48040A0621C2060839C2020835F4F86
:1059F000B00701D5384600E0604844F81C0F604805
:105A00006060202020760C202075D820A076102001
:105A1000A07514F80C0C1C3C7F2824D00CDC1F282B
:105A20001BD004DC012814D01C282ED113E0202820
:105A300015D0372829D114E0C2281AD004DC8C28CC
:105A400013D0BF2821D112E0C82814D0EF281CD1D0
:105A500013E04C4D12E04C4D10E04C4D0EE04C4D1F
:105A60000CE04C4D0AE04C4D08E04C4D06E04C4D2E
:105A700004E04C4D02E04C4D00E04C4D2DB162462F
:105A800031462046A847064601E03A4E361D06B389
:105A90000025E761284601F002FB032101230022D3
:105AA0000846FFF773FC014600222046FFF792FCF0
:105AB00001460DB1FF2000E00020814202D16D1CA3
:105AC000022DE7DB022D0AD1A06A40F40070A0622B
:105AD00005E0208D000402D52046FFF703FE204696
